{
  "_format": "hh-sol-artifact-1",
  "contractName": "FileHashStorage",
  "sourceName": "contracts/FileStorageHash.sol",
  "abi": [
    {
      "inputs": [],
      "name": "getAllFilenames",
      "outputs": [
        {
          "internalType": "string[]",
          "name": "",
          "type": "string[]"
        }
      ],
      "stateMutability": "view",
      "type": "function"
    },
    {
      "inputs": [
        {
          "internalType": "string",
          "name": "fileName",
          "type": "string"
        }
      ],
      "name": "getHash",
      "outputs": [
        {
          "internalType": "string",
          "name": "",
          "type": "string"
        }
      ],
      "stateMutability": "view",
      "type": "function"
    },
    {
      "inputs": [
        {
          "internalType": "string",
          "name": "fileName",
          "type": "string"
        },
        {
          "internalType": "string",
          "name": "fileHash",
          "type": "string"
        }
      ],
      "name": "storeHash",
      "outputs": [],
      "stateMutability": "nonpayable",
      "type": "function"
    }
  ],
  "bytecode": "0x608060405234801561001057600080fd5b506107d6806100206000396000f3fe608060405234801561001057600080fd5b50600436106100415760003560e01c80635b6beeb9146100465780636f28ee09146100765780637526adb414610092575b600080fd5b610060600480360381019061005b91906103b7565b6100b0565b60405161006d91906105c9565b60405180910390f35b610090600480360381019061008b91906103f8565b610160565b005b61009a6101d3565b6040516100a791906105a7565b60405180910390f35b60606000826040516100c29190610590565b908152602001604051809103902080546100db906106ff565b80601f0160208091040260200160405190810160405280929190818152602001828054610107906106ff565b80156101545780601f1061012957610100808354040283529160200191610154565b820191906000526020600020905b81548152906001019060200180831161013757829003601f168201915b50505050509050919050565b806000836040516101719190610590565b908152602001604051809103902090805190602001906101929291906102ac565b506001829080600181540180825580915050600190039060005260206000200160009091909190915090805190602001906101ce9291906102ac565b505050565b60606001805480602002602001604051908101604052809291908181526020016000905b828210156102a3578382906000526020600020018054610216906106ff565b80601f0160208091040260200160405190810160405280929190818152602001828054610242906106ff565b801561028f5780601f106102645761010080835404028352916020019161028f565b820191906000526020600020905b81548152906001019060200180831161027257829003601f168201915b5050505050815260200190600101906101f7565b50505050905090565b8280546102b8906106ff565b90600052602060002090601f0160209004810192826102da5760008555610321565b82601f106102f357805160ff1916838001178555610321565b82800160010185558215610321579182015b82811115610320578251825591602001919060010190610305565b5b50905061032e9190610332565b5090565b5b8082111561034b576000816000905550600101610333565b5090565b600061036261035d8461061c565b6105eb565b90508281526020810184848401111561037a57600080fd5b6103858482856106bd565b509392505050565b600082601f83011261039e57600080fd5b81356103ae84826020860161034f565b91505092915050565b6000602082840312156103c957600080fd5b600082013567ffffffffffffffff8111156103e357600080fd5b6103ef8482850161038d565b91505092915050565b6000806040838503121561040b57600080fd5b600083013567ffffffffffffffff81111561042557600080fd5b6104318582860161038d565b925050602083013567ffffffffffffffff81111561044e57600080fd5b61045a8582860161038d565b9150509250929050565b600061047083836104ed565b905092915050565b60006104838261065c565b61048d818561067f565b93508360208202850161049f8561064c565b8060005b858110156104db57848403895281516104bc8582610464565b94506104c783610672565b925060208a019950506001810190506104a3565b50829750879550505050505092915050565b60006104f882610667565b6105028185610690565b93506105128185602086016106cc565b61051b8161078f565b840191505092915050565b600061053182610667565b61053b81856106a1565b935061054b8185602086016106cc565b6105548161078f565b840191505092915050565b600061056a82610667565b61057481856106b2565b93506105848185602086016106cc565b80840191505092915050565b600061059c828461055f565b915081905092915050565b600060208201905081810360008301526105c18184610478565b905092915050565b600060208201905081810360008301526105e38184610526565b905092915050565b6000604051905081810181811067ffffffffffffffff8211171561061257610611610760565b5b8060405250919050565b600067ffffffffffffffff82111561063757610636610760565b5b601f19601f8301169050602081019050919050565b6000819050602082019050919050565b600081519050919050565b600081519050919050565b6000602082019050919050565b600082825260208201905092915050565b600082825260208201905092915050565b600082825260208201905092915050565b600081905092915050565b82818337600083830152505050565b60005b838110156106ea5780820151818401526020810190506106cf565b838111156106f9576000848401525b50505050565b6000600282049050600182168061071757607f821691505b6020821081141561072b5761072a610731565b5b50919050565b7f4e487b7100000000000000000000000000000000000000000000000000000000600052602260045260246000fd5b7f4e487b7100000000000000000000000000000000000000000000000000000000600052604160045260246000fd5b6000601f19601f830116905091905056fea264697066735822122009d104d91ec0ddfeb19065c9019b0c338c31a3a9a71e2b45883369c764ebf32964736f6c63430008000033",
  "linkReferences": {},
  "deployedLinkReferences": {}
}